:04000000803119280A
:1000060008007E1480310B1F09280A2817282100B2
:10001600111C0E280F2817282000111C132814283D
:1000260017288731A72780317E10090080311B28C9
:100036008731FF278031DE003F30840000308500A5
:1000460019308731F32780317E10200087310B2F3E
:100056002000B4003308031931283228D92934087E
:10006600860087018101340A8600870181013408F0
:10007600023E8600870181013408033E860087011F
:1000860081013408043E8600870181013408053E5B
:100096008600870181013408063E860087018101BA
:1000A600FE293408860087018101810A340A860008
:1000B60087018101810A3408023E86008701810199
:1000C600810A3408033E860087018101810A3408CB
:1000D600043E860087018101810A3408053E8600B8
:1000E60087018101810A3408063E86008701810165
:1000F600FE293408860087018101340A86008701BB
:100106008101810A3408023E860087018101810A45
:100116003408033E8600870181013408043E8600C8
:10012600870181013408053E860087018101340874
:10013600063E860087018101FE2934088600870174
:100146008101810A340A860087018101810A340807
:10015600023E8600870181013408033E860087013E
:100166008101810A3408043E860087018101810AE3
:100176003408053E8600870181013408063E860064
:1001860087018101810AFE293408860087018101E1
:10019600810A340A860087018101810A3408023EF9
:1001A600860087018101810A3408033E86008701A3
:1001B6008101810A3408043E8600870181013408E2
:1001C600053E8600870181013408063E86008701C8
:1001D6008101810AFE293408860087018101340ADB
:1001E600860087018101810A3408023E8600870164
:1001F6008101810A3408033E8600870181013408A3
:10020600043E8600870181013408053E8600870189
:100216008101810A3408063E860087018101810A30
:10022600FE293408860087018101810A340A860086
:10023600870181013408023E860087018101810A17
:100246003408033E860087018101810A3408043E92
:100256008600870181013408053E860087018101F9
:10026600810A3408063E860087018101810AFE293B
:100276003408860087018101810A340A86008701D5
:1002860081013408023E860087018101810A340813
:10029600033E860087018101810A3408043E8600F8
:1002A60087018101810A3408053E860087018101A4
:1002B600810A3408063E860087018101810AFE29EB
:1002C6003408860087018101810A340A8600870185
:1002D6008101810A3408023E860087018101810A74
:1002E6003408033E8600870181013408043E8600F7
:1002F600870181013408053E8600870181013408A3
:10030600063E860087018101FE29340886008701A2
:100316008101810A340A860087018101810A340835
:10032600023E860087018101810A3408033E860069
:1003360087018101810A3408043E86008701810114
:10034600810A3408053E860087018101810A340846
:10035600063E860087018101810AFE29340886004F
:1003660087018101810A340A860087018101810A99
:100376003408023E860087018101810A3408033E63
:10038600860087018101810A3408043E86008701C0
:1003960081013408053E860087018101810A3408FF
:1003A600063E860087018101810AFE293208003A4D
:1003B6000319DE29FE293108003A03195428013AA7
:1003C60003197C28033A0319A028013A0319C72800
:1003D600073A0319EE28013A03191429033A0319B7
:1003E6003B29013A031963290F3A03198829013A6F
:1003F6000319B129FE290800F30072080319042A1B
:10040600052AAC2B7308860087018101730A8600D2
:10041600870181017308023E860087018101730806
:10042600033E8600870181017308043E860087012A
:1004360081017308053E8600870181017308063E27
:10044600860087018101D12B73088600870181010F
:10045600810A730A860087018101810A7308023EB8
:10046600860087018101810A7308033E86008701A1
:100476008101810A7308043E860087018101810A91
:100486007308053E860087018101810A7308063ECE
:10049600860087018101D12B7308860087018101BF
:1004A600730A860087018101810A7308023E86006D
:1004B60087018101810A7308033E86008701810155
:1004C6007308043E8600870181017308053E860095
:1004D600870181017308063E860087018101D12BC1
:1004E6007308860087018101810A730A86008701E5
:1004F6008101810A7308023E860087018101730823
:10050600033E860087018101810A7308043E860046
:1005160087018101810A7308053E860087018101F2
:100526007308063E860087018101810AD12B730874
:10053600860087018101810A730A8600870181018D
:10054600810A7308023E860087018101810A7308C9
:10055600033E860087018101810A7308043E8600F6
:10056600870181017308053E8600870181017308B2
:10057600063E860087018101810AD12B7308860019
:1005860087018101730A860087018101810A730848
:10059600023E860087018101810A7308033E8600B8
:1005A600870181017308043E860087018101730873
:1005B600053E860087018101810A7308063E860092
:1005C60087018101810AD12B730886008701810189
:1005D600810A730A8600870181017308023E86003C
:1005E60087018101810A7308033E86008701810124
:1005F600810A7308043E8600870181017308053E5F
:10060600860087018101810A7308063E86008701FC
:100616008101810AD12B7308860087018101810A35
:10062600730A8600870181017308023E86008701EE
:100636008101810A7308033E860087018101810AD0
:100646007308043E860087018101810A7308053E0E
:10065600860087018101810A7308063E86008701AC
:100666008101810AD12B7308860087018101810AE5
:10067600730A860087018101810A7308023E86009B
:1006860087018101810A7308033E86008701810183
:100696007308043E8600870181017308053E8600C3
:1006A600870181017308063E860087018101D12BEF
:1006B6007308860087018101810A730A8600870113
:1006C6008101810A7308023E860087018101810A41
:1006D6007308033E860087018101810A7308043E80
:1006E600860087018101810A7308053E860087011D
:1006F6008101810A7308063E860087018101810A0D
:10070600D12B7308860087018101810A730A86004E
:1007160087018101810A7308023E860087018101F3
:10072600810A7308033E860087018101810A7308E6
:10073600043E8600870181017308053E8600870115
:100746008101810A7308063E860087018101810ABC
:10075600D12B7108003A0319B12BD12B7008003A3E
:100766000319272A013A03194F2A033A0319732A50
:10077600013A03199A2A073A0319C12A013A0319B9
:10078600E72A033A03190E2B013A0319362B0F3ABF
:1007960003195B2B013A0319842BD12B0800200087
:1007A6004208013CC200420C031C8C1203188C1632
:1007B600B0014308031DE02BE12BF72B4608031D70
:1007C600E52BE62BF72B4708031DEA2BEB2BF72B24
:1007D6004808031DEF2BF02BF72B4908031DF42BBC
:1007E600F52BF72BB001B00A440845053005420643
:1007F600AD00AD0E0C082D06EF392D068C004A080B
:100806004206AD00AD0EAD0D0E082D06DF392D06E4
:100816008E004B084206AD00AD0E0E082D06EF39D0
:100826002D068E004C084206AD00AD0DAD0DAD0D8A
:100836000E082D06F7392D068E004D084206AD002E
:10084600AD0EAD0DAD0D0E082D06BF392D068E0071
:100856004E084206AD00AD0CAD0C0E082D067F39D4
:100866002D068E004F084206AD00AD0CAD0C0D08EE
:100876002D067F392D068D0050084206AD00AD0EBF
:10088600AD0DAD0D0D082D06BF392D068D00510895
:100896004206AD00AD0EAD0D0D082D06DF392D0655
:1008A6008D0052084206AD00AD0E0D082D06EF393B
:1008B6002D068D0053084206AD00AD0DAD0D0E0898
:1008C6002D06FB392D068E0054084206AD00AD0DEF
:1008D6000E082D06FD392D068E0042085506AD0080
:1008E6000E082D06FE392D068E0056084206AD006E
:1008F600AD0DAD0D0C082D06FB392D068C005708E5
:100906004206AD00AD0D0C082D06FD392D068C00F6
:100916005E0803198F2C902C9F2CDE010130AD0050
:100926002D08C1074108AE00AF012E08A2002F080E
:10093600A30085312A25833108000A302000BA0039
:100946000030BB00210023082000BD002100220842
:100956002000BC008531F925843120003B082100A8
:10096600A80020003A082100A7000A302000BA009B
:100976000030BB000A30B1000030B200210023086D
:100986002000B400210022082000B30085319925FB
:10099600843120003208BD003108BC008531F925BC
:1009A600843120003B082100AA0020003A082100DB
:1009B600A9002308803AA40080302402031DE52CF8
:1009C600643022020318E82CEA2C0130EB2C0030AC
:1009D6002100A500A6012508AB002608AC002808C2
:1009E6002000B200210027082000B100B3015130D9
:1009F60080312B20843121002A082000B2002100FA
:100A060029082000B10021002308803AA400803084
:100A16002402031D102D0A302202031C132D152D4E
:100A26000130162D00302000B3004A3080312B20D3
:100A3600843121002C082000B20021002B08200060
:100A4600B100B301433080312B20843108000A30D5
:100A5600F9000030FA0020002308FC002208FB0001
:100A66008631B72685317A082000A8007908A700C4
:100A76000A30F9000030FA000A30F0000030F100C8
:100A86002308F3002208F2008631582685317108C2
:100A9600FC007008FB008631B72685317A082000F5
:100AA600AA007908A9002308803AA400803024020D
:100AB600031D5F2D643022020318622D642D013060
:100AC600652D00302000A500A6012508AB002608EC
:100AD600AC002808F1002708F000F20151308131FE
:100AE600FF21853120002A08F1002908F00023089B
:100AF600803AA40080302402031D832D0A3022028E
:100B0600031C862D882D0130892D0030F2004A30D5
:100B16008131FF21853120002C08F1002B08F000DF
:100B2600F20143308131FF21853108002000B701F1
:100B3600B21F9E2D9F2DA62DB109B209B10A031928
:100B4600B20AB701B70AB41FA92DAA2DB32DB3094E
:100B5600B409B30A0319B40A0130B5003508B7065B
:100B6600B801B901310832040319BA2DBB2DEA2D9B
:100B7600B601B60AC72D0130B135B20D890BBF2DAE
:100B86000130B5003508B607B21FCA2DCB2DBE2DD4
:100B96000130B835B90D890BCC2D32083402031D4E
:100BA600D62D31083302031CD92DDA2DDF2D31085D
:100BB600B3023208B43B38140130B236B10C890B9B
:100BC600E02D0130B602031DE92DEA2DCB2D3708A5
:100BD6000319EE2DEF2DF42DB809B909B80A03193A
:100BE600B90A3908B2003808B10008002100A1018D
:100BF6002000BD1FFF2D002E082EBC09BD09BC0A12
:100C06000319BD0A2100A101A10A2000BB1F0C2E59
:100C16000D2E122EBA09BB09BA0A0319BB0A3A08E5
:100C26003B040319172E182E462E2100A001A00AF8
:100C3600262E0130BA35BB0D890B1D2E0130BE00A4
:100C46003E082100A0072000BB1F2A2E2B2E1C2E9B
:100C560020003B083D02031D322E3A083C02031CCD
:100C6600352E362E3A2E3A08BC023B08BD3B0130E3
:100C7600BB36BA0C890B3B2E01302100A002031DA6
:100C8600452E462E2B2E2100210803194B2E4C2EC5
:100C9600522E2000BC09BD09BC0A0319BD0A20005A
:100CA6003D08BB003C08BA000800F601F11F5C2EA7
:100CB6005D2E642EF009F109F00A0319F10AF60116
:100CC600F60AF31F672E682E712EF209F309F20A4F
:100CD6000319F30A0130F4007408F606F701F80167
:100CE600700871040319782E792EA82EF501F50ADD
:100CF600852E0130F035F10D890B7D2E0130F40083
:100D06007408F507F11F882E892E7C2E0130F735E1
:100D1600F80D890B8A2E71087302031D942E700834
:100D26007202031C972E982E9D2E7008F2027108EF
:100D3600F33B77140130F136F00C890B9E2E01300F
:100D4600F502031DA72EA82E892E76080319AC2EB0
:100D5600AD2EB22EF709F809F70A0319F80A780832
:100D6600F1007708F00008002000A101FC1FBC2E4E
:100D7600BD2EC42EFB09FC09FB0A0319FC0AA101BE
:100D8600A10AFA1FC72EC82ECD2EF909FA09F90AAB
:100D96000319FA0A79087A040319D22ED32EFC2EE7
:100DA600A001A00ADF2E0130F935FA0D890BD72EE6
:100DB6000130FD007D08A007FA1FE22EE32ED62E95
:100DC6007A087C02031DE92E79087B02031CEC2EAF
:100DD600ED2EF12E7908FB027A08FC3B0130FA363B
:100DE600F90C890BF22E0130A002031DFB2EFC2EFE
:100DF600E32E21080319002F012F062FFB09FC09FA
:100E0600FB0A0319FC0A7C08FA007B08F9000800B3
:100E16008731CE27873120008C16513087314E27F7
:100E260087314A3087314E278731433087314E2705
:100E360087312000D201D20AD301D30AD230B100C1
:100E46000330B2008731F92787318B170B17200043
:100E560041082100AD00AE012D08A2002E08A30016
:100E66008431A024873120000C1C3A2F3B2F362FCB
:100E7600DE01DE0A462F9C302100AD00D730890BFB
:100E8600422FAD0B422F20000C184A2F4B2F3E2F1E
:100E9600362F803119282000B100310886008701DD
:100EA6008101310A8600870181013108023E8600F0
:100EB600870181013108033E8600870181013108DF
:100EC600043E8600870181013108053E86008701C0
:100ED60081013108063E8600870181010800220053
:100EE6008C018D018E01093021008C008D018E014F
:100EF60023008C018D018E01093024008C008D01A8
:100F06002100951327009101920193019401950107
:100F160096018B15080020009901EC309700773078
:100F260096001708DB001608DA000330B10000301F
:100F3600B2008731F92787312000111021001114E2
:100F46003130200098000800200011105B08F100E5
:100F56005A08F0008731BD27873120005808590408
:100F66000319B62FB72FBC2F59088A0058080A0054
:100F7600873108002000181DC12FC22FC92F181055
:100F860071089700700896001814CD2F7108970005
:100F96007008960008008F31F42787318731722751
:100FA600873187318E2787318731E72787310800D8
:100FB6008E340734003400340034003400340034F6
:100FC600F9340734003400348B1021001517003033
:100FD6002000B1000030B2008F31FA2787310800B7
:100FE600640080010131890BF42F0034200032089F
:0A0FF600D9003108D80008000134CA
:101FE800783021009900220096010800200032086C
:081FF800DD003108DC000800E7
:020000040001F9
:08000000FF3FFF3FFF3FFF3F00
:04000E00E43FFF3F8D
:00000001FF
