:04000000803119280A
:100008007E1480310B1F09280A2817282100111C8B
:100018000E280F2817282000111C13281428172829
:1000280084317F2480317E10090080311B28FB0138
:10003800203084000030850017308431CA24803194
:100048007E1020008331D82BF500740803192D2861
:100058002E28D5297508860087018101750A860032
:10006800870181017508023E8600870181017508B4
:10007800033E8600870181017508043E86008701DA
:1000880081017508053E8600870181017508063ED5
:10009800860087018101FA29750886008701810198
:1000A800810A750A860087018101810A7508023E66
:1000B800860087018101810A7508033E8600870151
:1000C8008101810A7508043E860087018101810A41
:1000D8007508053E860087018101810A7508063E7C
:1000E800860087018101FA29750886008701810148
:1000F800750A860087018101810A7508023E86001B
:1001080087018101810A7508033E86008701810104
:100118007508043E8600870181017508053E860042
:10012800870181017508063E860087018101FA2949
:100138007508860087018101810A750A8600870192
:100148008101810A7508023E8600870181017508D0
:10015800033E860087018101810A7508043E8600F6
:1001680087018101810A7508053E860087018101A2
:100178007508063E860087018101810AFA297508FB
:10018800860087018101810A750A8600870181013D
:10019800810A7508023E860087018101810A750877
:1001A800033E860087018101810A7508043E8600A6
:1001B800870181017508053E860087018101750860
:1001C800063E860087018101810AFA2975088600A2
:1001D80087018101750A860087018101810A7508F6
:1001E800023E860087018101810A7508033E860068
:1001F800870181017508043E860087018101750821
:10020800053E860087018101810A7508063E860041
:1002180087018101810AFA29750886008701810111
:10022800810A750A8600870181017508023E8600E9
:1002380087018101810A7508033E860087018101D3
:10024800810A7508043E8600870181017508053E0C
:10025800860087018101810A7508063E86008701AC
:100268008101810AFA297508860087018101810ABE
:10027800750A8600870181017508023E860087019C
:100288008101810A7508033E860087018101810A80
:100298007508043E860087018101810A7508053EBC
:1002A800860087018101810A7508063E860087015C
:1002B8008101810AFA297508860087018101810A6E
:1002C800750A860087018101810A7508023E860049
:1002D80087018101810A7508033E86008701810133
:1002E8007508043E8600870181017508053E860071
:1002F800870181017508063E860087018101FA2978
:100308007508860087018101810A750A86008701C0
:100318008101810A7508023E860087018101810AF0
:100328007508033E860087018101810A7508043E2D
:10033800860087018101810A7508053E86008701CC
:100348008101810A7508063E860087018101810ABC
:10035800FA297508860087018101810A750A8600D5
:1003680087018101810A7508023E860087018101A3
:10037800810A7508033E860087018101810A750894
:10038800043E8600870181017508053E86008701C5
:100398008101810A7508063E860087018101810A6C
:1003A800FA297308003A0319DA29FA297208003A77
:1003B80003195028013A03197828033A03199C288D
:1003C800013A0319C328073A0319EA28013A03191D
:1003D8001029033A03193729013A03195F290F3AFB
:1003E80003198429013A0319AD29FA2908007B0861
:1003F800013CFB007B0C2000031C8C1203188C169C
:10040800F1012208031D092A0A2A202A2508031DAA
:100418000E2A0F2A202A2608031D132A142A202A06
:100428002708031D182A192A202A2808031D1D2A0F
:100438001E2A202AF101F10A2308240571057B06EA
:10044800F000F00E0C087006EF3970068C002908D1
:100458007B06F000F00EF00D0E087006DF3970060E
:100468008E002A087B06F000F00E0E087006EF39A1
:1004780070068E002B087B06F000F00DF00DF00DD5
:100488000E087006F73970068E002C087B06F000FF
:10049800F00EF00DF00D0E087006BF3970068E00D4
:1004A8002D087B06F000F00CF00C0E0870067F3962
:1004B80070068E002E087B06F000F00CF00C0D087C
:1004C80070067F3970068D002F087B06F000F00E4D
:1004D800F00DF00D0D087006BF3970068D0030085C
:1004E8007B06F000F00EF00D0D087006DF3970067F
:1004F8008D0031087B06F000F00E0D087006EF390C
:1005080070068D0032087B06F000F00DF00D0E0825
:100518007006FB3970068E0033087B06F000F00D7C
:100528000E087006FD3970068E007B083406F00050
:100538000E087006FE3970068E0035087B06F0003E
:10054800F00DF00D0C087006FB3970068C003608AB
:100558007B06F000F00D0C087006FD3970068C0063
:1005680008000A302000B7000030B8003F08BA0081
:100578003E08B90083318423823120003808C40042
:100588003708C3000A30B7000030B8000A30F2005C
:100598000030F3003F08F5003E08F40083312523BE
:1005A800823173082000BA007208B90083318423AD
:1005B800823120003808C6003708C5003F08803A55
:1005C800C00080304002031DEB2A64303E0203184D
:1005D800EE2AF02A0130F12A00302000C100C201C1
:1005E8004108C7004208C8004408F3004308F20065
:1005F800F401303080312820823120004608F30091
:100608004508F2003F08803AC00080304002031DD0
:100618000F2B0A303E02031C122B142B0130152B12
:100628000030F40029308031282082312000480829
:10063800F3004708F200F40122308031282082318B
:100648000800F801F31F292B2A2B312BF209F30993
:10065800F20A0319F30AF801F80AF51F342B352BAF
:100668003E2BF409F509F40A0319F50A0130F600DE
:100678007608F806F901FA01720873040319452B84
:10068800462B752BF701F70A522B0130F235F30D83
:10069800890B4A2B0130F6007608F707F31F552B14
:1006A800562B492B0130F935FA0D890B572B730856
:1006B8007502031D612B72087402031C642B652BE1
:1006C8006A2B7208F4027308F53B79140130F3368B
:1006D800F20C890B6B2B0130F702031D742B752B61
:1006E800562B78080319792B7A2B7F2BF909FA09ED
:1006F800F90A0319FA0A7A08F3007908F2000800DF
:100708002000BD01BA1F892B8A2B912BB909BA0980
:10071800B90A0319BA0ABD01BD0AB81F942B952B53
:100728009A2BB709B809B70A0319B80A3708380461
:1007380003199F2BA02BC92BBC01BC0AAC2B013081
:10074800B735B80D890BA42B0130BB003B08BC079B
:10075800B81FAF2BB02BA32B38083A02031DB62BBA
:1007680037083902031CB92BBA2BBE2B3708B9023C
:100778003808BA3B0130B836B70C890BBF2B0130AB
:10078800BC02031DC82BC92BB02B3D080319CD2B68
:10079800CE2BD32BB909BA09B90A0319BA0A3A08F0
:1007A800B8003908B70008008431A6248331200036
:1007B8008C16303084312624833129308431262424
:1007C800833122308431262483312000B101B10ADB
:1007D800B201B20AFB30F2000130F3008431D024B8
:1007E80083318B170B172000CB01CC0120004C085C
:1007F800BF004B08BE008231B52283310130200092
:10080800CB070030CC3D4C08803AC9008030490203
:10081800031D102CC8304B02031C132C142C172C4E
:100828002000CB01CC0103302000CA000830C900E9
:100838007730890B1D2CC90B1D2CCA0B1D2CFA2BCC
:1008480080311928F2007208860087018101720A36
:100858008600870181017208023E860087018101B6
:100868007208033E8600870181017208043E8600F3
:10087800870181017208053E86008701810172089F
:10088800063E860087018101080022008C018D0147
:100898008E01093021008C008D018E0123008C010E
:1008A8008D018E013F3024008C00F0308D00210036
:1008B80095132700910192019301940195019601E6
:1008C8008B15080020009901EC30970077309600CE
:1008D8001708D0001608CF00E230F2000430F30009
:1008E8008431D024843120001110210011143130BA
:1008F800200098000800200011105008F1004F084F
:10090800F00084319524843120004D084E040319E9
:100918008E2C8F2C942C4E088A004D080A008431A6
:1009280008002000181D992C9A2CA12C1810710869
:100938009700700896001814A52C71089700700885
:10094800960008008431DC248431843149248431C0
:100958008431662484318431BF24843108006634AC
:100968000434003400340034003400340034D0340B
:100978000434003400348B10210015170030F200C5
:100988000030F3008431D6248431080064008001EB
:100998000131890BCB2C003473082000CE0072087B
:1009A800CD00080073082000D2007208D1000800AA
:0E09B800783021009900220096010800080006
:020000040001F9
:08000000FF3FFF3FFF3FFF3F00
:04000E00E43FFF3F8D
:00000001FF
