:1000000080312928080001347E14803100308600B8
:10001000003087008B1D0D280E2816280B1C112878
:10002000122816288F317A27803127280B1F19288C
:100030001A2827282100111C1E281F2827282000E5
:10004000111C2328242827288F31AF2780317E10C8
:10005000090080312B28803103208031E1004030BD
:100060008400003085001B308F31742780317E1072
:10007000200085316B2D20003208031940284128CB
:10008000FE292E0886002F08870081012E08860091
:100090008701413181012E088600870142318101AB
:1000A0002E0886008701433181012E0886008701D2
:1000B000443181012E0886008701453181012E08D7
:1000C0008600870146318101232A2E0886002F08E9
:1000D0008700013081002E08860087014131013000
:1000E00081002E08860087014231013081002E08F0
:1000F000860087014331013081002E088600870188
:100100004431013081002E088600870145310130DD
:1001100081002E088600870146318101232A2E089E
:1001200086002F08870081012E0886008701413153
:10013000013081002E0886008701423101308100A4
:100140002E0886008701433181012E088600870131
:10015000443181012E0886008701453181012E0836
:100160008600870146318101232A2E0886002F0848
:100170008700013081002E0886008701413101305F
:1001800081002E0886008701423181012E088600F9
:1001900087014331013081002E08860087014431F8
:1001A000013081002E0886008701453181012E082B
:1001B00086008701463101308100232A2E088600FF
:1001C0002F088700013081002E0886008701413109
:1001D000013081002E088600870142310130810004
:1001E0002E08860087014331013081002E088600E9
:1001F0008701443181012E08860087014531810144
:100200002E0886008701463101308100232A2E08FE
:1002100086002F08870081012E0886008701413162
:10022000013081002E0886008701423101308100B3
:100230002E0886008701433181012E088600870140
:10024000443181012E08860087014531013081004B
:100250002E0886008701463101308100232A2E08AE
:1002600086002F088700013081002E088600870154
:10027000413181012E088600870142310130810021
:100280002E08860087014331013081002E08860048
:100290008701443181012E088600870145310130F4
:1002A00081002E0886008701463101308100232A13
:1002B0002E0886002F088700013081002E08860056
:1002C0008701413181012E088600870142310130CA
:1002D00081002E08860087014331013081002E08FD
:1002E000860087014431013081002E088600870195
:1002F0004531013081002E088600870146310130EA
:100300008100232A2E0886002F08870001308100F3
:100310002E08860087014131013081002E088600B9
:1003200087014231013081002E0886008701433168
:1003300081012E0886008701443181012E08860044
:100340008701453181012E088600870146318101F0
:10035000232A2E0886002F088700013081002E08EE
:10036000860087014131013081002E088600870117
:100370004231013081002E0886008701433101306F
:1003800081002E08860087014431013081002E084B
:10039000860087014531013081002E0886008701E3
:1003A000463101308100232A2E0886002F0887005D
:1003B000013081002E088600870141310130810023
:1003C0002E08860087014231013081002E08860008
:1003D00087014331013081002E08860087014431B6
:1003E00081012E08860087014531013081002E08E9
:1003F00086008701463101308100232A3108003A06
:100400000319032A232A3008003A03196528013A00
:1004100003198F28033A0319B528013A0319DE2876
:10042000073A03190729013A03192F29033A031937
:100430005829013A031982290F3A0319A929013AC7
:100440000319D429232A080074080319282A292A01
:10045000E62B70088600710887008101700886000D
:100460008701413181017008860087014231810195
:10047000700886008701433181017008860087017A
:10048000443181017008860087014531810170087F
:1004900086008701463181010B2C700886007108A7
:1004A00087000130810070088600870141310130EA
:1004B0008100700886008701423101308100700898
:1004C0008600870143310130810070088600870172
:1004D00044310130810070088600870145310130C8
:1004E0008100700886008701463181010B2C70085D
:1004F00086007108870081017008860087014131FC
:10050000013081007008860087014231013081008E
:1005100070088600870143318101700886008701D9
:1005200044318101700886008701453181017008DE
:1005300086008701463181010B2C70088600710806
:100540008700013081007008860087014131013049
:1005500081007008860087014231810170088600A1
:1005600087014331013081007008860087014431E2
:1005700001308100700886008701453181017008D3
:10058000860087014631013081000B2C70088600FF
:1005900071088700013081007008860087014131B1
:1005A00001308100700886008701423101308100EE
:1005B0007008860087014331013081007008860091
:1005C000870144318101700886008701453181012E
:1005D0007008860087014631013081000B2C7008BD
:1005E000860071088700810170088600870141310B
:1005F000013081007008860087014231013081009E
:1006000070088600870143318101700886008701E8
:100610004431810170088600870145310130810035
:100620007008860087014631013081000B2C70086C
:1006300086007108870001308100700886008701FC
:10064000413181017008860087014231013081000B
:1006500070088600870143310130810070088600F0
:1006600087014431810170088600870145310130DE
:1006700081007008860087014631013081000B2C13
:1006800070088600710887000130810070088600BC
:1006900087014131810170088600870142310130B4
:1006A00081007008860087014331013081007008A5
:1006B000860087014431013081007008860087017F
:1006C00045310130810070088600870146310130D4
:1006D00081000B2C700886007108870001308100B2
:1006E0007008860087014131013081007008860062
:1006F0008701423101308100700886008701433153
:1007000081017008860087014431810170088600EC
:1007100087014531810170088600870146318101DA
:100720000B2C70088600710887000130810070086A
:100730008600870141310130810070088600870101
:100740004231013081007008860087014331013059
:1007500081007008860087014431013081007008F3
:1007600086008701453101308100700886008701CD
:100770004631013081000B2C70088600710887001B
:10078000013081007008860087014131013081000D
:1007900070088600870142310130810070088600B0
:1007A00087014331013081007008860087014431A0
:1007B0008101700886008701453101308100700891
:1007C000860087014631013081000B2C7308003A06
:1007D0000319EB2B0B2C7208003A03194D2A013A2E
:1007E0000319772A033A03199D2A013A0319C62AE5
:1007F000073A0319EF2A013A0319172B033A031991
:10080000402B013A03196A2B0F3A0319912B013A35
:100810000319BC2B0B2C080020004508013CC50027
:10082000450C031C8C1203188C16AD014608031DE1
:100830001A2C1B2C312C4908031D1F2C202C312C69
:100840004A08031D242C252C312C4B08031D292C70
:100850002A2C312C4C08031D2E2C2F2C312C01302E
:10086000AD00470848052D054506AB00AB0E0C084A
:100870002B06EF392B068C004D084506AB00AB0E5E
:10088000AB0D0E082B06DF392B068E004E084506F1
:10089000AB00AB0E0E082B06EF392B068E004F086F
:1008A0004506AB00AB0DAB0DAB0D0E082B06F739B3
:1008B0002B068E0050084506AB00AB0EAB0DAB0D02
:1008C0000E082B06BF392B068E0051084506AB00DB
:1008D000AB0CAB0C0E082B067F392B068E00520892
:1008E0004506AB00AB0CAB0C0D082B067F392B0675
:1008F0008D0053084506AB00AB0EAB0DAB0D0D08DC
:100900002B06BF392B068D0054084506AB00AB0EF5
:10091000AB0D0D082B06DF392B068D00550845065B
:10092000AB00AB0E0D082B06EF392B068D005608D9
:100930004506AB00AB0DAB0D0E082B06FB392B06A5
:100940008E0057084506AB00AB0D0E082B06FD398F
:100950002B068E0045085806AB000E082B06FE3904
:100960002B068E0059084506AB00AB0DAB0D0C08ED
:100970002B06FB392B068C005A084506AB00AB0D45
:100980000C082B06FD392B068C0061080319C92CB5
:10099000CA2CD72CE1010130C4074408AB00AC01DC
:1009A0002B08A0002C08A1008531FC25843108000B
:1009B0000A302000B6000030B7003D08B9003C08FE
:1009C000B80087312B278431200037082100A4008C
:1009D000200036082100A3000A302000B6000030B5
:1009E000B7000A30AE000030AF003D08B1003C084F
:1009F000B00086317426843120002F08B9002E08FB
:100A0000B80087312B278431200037082100A60049
:100A1000200036082100A50020003D08803A210072
:100A2000A00080302002031D182D643020003C02FD
:100A300003181B2D1D2D01301E2D00302100A1009B
:100A4000A2012108A7002208A80054302000AE000F
:100A50000030AF00210024082000B100210023084D
:100A60002000B000B20180313B2084314D302000A5
:100A7000AE000030AF00210026082000B1002100A8
:100A800025082000B0003D08803A2100A0008030F9
:100A90002002031D4E2D0A3020003C02031C512D64
:100AA000532D0130542D00302000B20080313B2006
:100AB000843146302000AE000030AF00210028080D
:100AC0002000B100210027082000B000B2018031D1
:100AD0003B20843108008731F32785312000C40191
:100AE00044082100A900AA0129082000BC00210017
:100AF0002A082000BD008431D82485310C30200024
:100B0000AE000430AF008F316E278531DE3020001B
:100B1000AE000F30AF008F31682785318B170B1770
:100B2000200044082100A900AA0129082000BC00D7
:100B300021002A082000BD008431D82485316300BB
:100B40002000BE01BF01AD2D06302100A9003030CC
:100B5000890BA82DA90BA82D000020003F0821001B
:100B6000AA0020003E082100A9002000BE0A0319A7
:100B7000BF0A21002A08803AAB0087302B02031DF0
:100B8000C32DD03029020318C62DC72DCC2D20002F
:100B90000C1CCB2DCC2DA42D20003F08803A210029
:100BA000A90087302902031DD82DD13020003E0234
:100BB000031CDB2DDC2D9F2D2000C40144082100E7
:100BC000A900AA0129082000BC0021002A08200051
:100BD000BD008431D824853115302100AA004B3066
:100BE000A900BE30890BF22DA90BF22DAA0BF22D14
:100BF00000009F2D803129280A30F8000030F900CC
:100C000020002108FB002008FA0087317D2785316C
:100C100079082000A6007808A5000A30F800003006
:100C2000F9000A30F0000030F1002108F30020083C
:100C3000F2008631D02685317108FB007008FA0079
:100C400087317D27853179082000A8007808A70022
:100C50002108803AA20080302202031D312E643028
:100C600020020318342E362E0130372E003020009B
:100C7000A300A4012308A9002408AA005430F0000E
:100C80000030F1002608F3002508F200F40182315B
:100C9000242285314D30F0000030F100200028087A
:100CA000F3002708F2002108803AA20080302202D7
:100CB000031D5C2E0A302002031C5F2E612E0130C2
:100CC000622E0030F4008231242285314630F0005B
:100CD0000030F10020002A08F3002908F200F40196
:100CE00082312422853108002000B301AF1F792E04
:100CF0007A2E812EAE09AF09AE0A0319AF0A013070
:100D0000B300B11F842E852E8C2EB009B109B00A14
:100D10000319B10A0130B306B401B5012E082F043E
:100D20000319932E942EC12E0130B2009E2E013055
:100D3000AE35AF0D890B982E0130B207AF1FA12E33
:100D4000A22E972E0130B435B50D890BA32E2F0896
:100D50003102031DAD2E2E083002031CB02EB12E21
:100D6000B62E2E08B0022F08B13B34140130AF3636
:100D7000AE0C890BB72E0130B202031DC02EC12E5E
:100D8000A22E33080319C52EC62ECB2EB409B509E1
:100D9000B40A0319B50A3508AF003408AE000800DC
:100DA000F501F11FD42ED52EDC2EF009F109F00A41
:100DB0000319F10A0130F500F31FDF2EE02EE72EB4
:100DC000F209F309F20A0319F30A0130F506F601F4
:100DD000F701700871040319EE2EEF2E1C2F01305D
:100DE000F400F92E0130F035F10D890BF32E0130AE
:100DF000F407F11FFC2EFD2EF22E0130F635F70D13
:100E0000890BFE2E71087302031D082F70087202F1
:100E1000031C0B2F0C2F112F7008F2027108F33BEB
:100E200076140130F136F00C890B122F0130F402E8
:100E3000031D1B2F1C2FFD2E75080319202F212F9A
:100E4000262FF609F709F60A0319F70A7708F100C1
:100E50007608F00008002000BB01B91F302F312FA9
:100E6000382FB809B909B80A0319B90A0130BB000B
:100E7000B71F3B2F3C2F412FB609B709B60A0319FC
:100E8000B70A360837040319462F472F6E2F013053
:100E9000BA00512F0130B635B70D890B4B2F0130F9
:100EA000BA07B71F542F552F4A2F37083902031D91
:100EB0005B2F36083802031C5E2F5F2F632F360826
:100EC000B8023708B93B0130B736B60C890B642F2E
:100ED0000130BA02031D6D2F6E2F552F3B080319E9
:100EE000722F732F782FB809B909B80A0319B90AF4
:100EF0003908B7003808B6000800FD01FB1F812F34
:100F0000822F892FFA09FB09FA0A0319FB0A01301B
:100F1000FD00F91F8C2F8D2F922FF809F909F80A7F
:100F20000319F90A780879040319972F982FBF2F0E
:100F30000130FC00A22F0130F835F90D890B9C2FF0
:100F40000130FC07F91FA52FA62F9B2F79087B02E4
:100F5000031DAC2F78087A02031CAF2FB02FB42FDB
:100F60007808FA027908FB3B0130F936F80C890B56
:100F7000B52F0130FC02031DBE2FBF2FA62F7D0809
:100F80000319C32FC42FC92FFA09FB09FA0A031941
:100F9000FB0A7B08F9007A08F800080022008C019F
:100FA0008D018E01093021008C008D018E012300FE
:100FB0008C018D018E01093024008C008D012100EF
:100FC000951327009101013092009301940195013E
:100FD00096015B302000AE000F30AF008F316827E4
:100FE00087318B1508008F315C2787318731CE27F9
:100FF00087318F31C52787318F31832787310800AB
:101EB60008007830210099002200960108002000D1
:101EC6002F08DE002E08DD00080020002F08E000A5
:101ED6002E08DF00080020002F08DC002E08DB009B
:101EE6000800640080010131890B752F003427003A
:101EF600131C7E2F7F2F822F8F318F278F31080063
:101F06008B102100151700302000AE000030AF0006
:101F16008F3162278F31080020005F0860040319A3
:101F2600952F962F9B2F60088A005F080A008F3135
:101F36002700131008002000181DA22FA32FAA2F78
:101F4600181071089700700896001814AE2F7108C3
:101F56009700700896000800200011104308F10051
:101F66004208F0008F319E278F3120005B085C0409
:101F76000319BE2FBF2FC42F5C088A005B080A0016
:101F86008F31080020009901C53097006730960010
:101F96001708C3001608C2000230AE000030AF00BA
:101FA6008F316E278F31200011102100111431302E
:101FB60020009800080001302000C407C830440201
:101FC600031CE62FE72FE82FC4014408AB00AC0141
:101FD6002B08A0002C08A1008531FC258F31073085
:101FE6002000AC001730AB006A30890BF82FAB0B22
:101FF600F82FAC0BF82F00000800C5340F3400345E
:10200600003400340034003400346E340F340034AD
:02201600003494
:020000040001F9
:08000000FF3FFF3FFF3FFF3F00
:04000E00A43FFF3FCD
:00000001FF
